:100000000C942A000C943F000C943F000C943F0089
:100010000C943F000C943F000C943F000C943F0064
:100020000C943F000C943F000C943F000C943F0054
:100030000C943F000C943F000C943F000C943F0044
:100040000C943F000C943F000C943F000C943F0034
:100050000C943F0011241FBECFE5D8E0DEBFCDBF1A
:1000600010E0A0E6B0E0E4E1F2E002C005900D92FD
:10007000AA36B107D9F70E9476000C9408010C94B7
:100080000000FC01413059F4208181E090E002C081
:10009000880F991F6A95E2F7822B808308959081DB
:1000A00021E030E002C0220F331F6A95E2F720956D
:1000B000292320830895442361F0FC01408121E03D
:1000C00030E002C0220F331F6A95E2F7242B208311
:1000D0000895FC01408121E030E002C0220F331F6F
:1000E0006A95E2F720952423208308950E94E60074
:1000F0000E94FB00FDCF8FEF84BB87B3836087BB7B
:100100000895EDEC8E9FE12D1124E695E695E69598
:100110002E2F220F922F990F990F920F891B982F34
:1001200088B3836088BBF0E0E05AFF4F808185BBD5
:1001300088B38E7F88BBEDEEF2E03197F1F700C017
:10014000000088B3816088BBE92FF0E0E05AFF4FE0
:10015000808185BB88B38D7F88BB8DEE92E001974F
:10016000F1F700C0000088B3826088BB0895FF9259
:100170000F931F93CF93DF93082FF62E41E08BE36D
:1001800090E00E945B0010E012C0802F0E9481006E
:1001900081EE94E00197F1F700C00000219602C0C3
:1001A000C0E0D0E0C83CD10584F30150110910161D
:1001B0001106B4F340E06F2D8BE390E00E945B00EA
:1001C000DF91CF911F910F91FF90089541E060E082
:1001D0008AE390E00E94410041E061E08AE390E020
:1001E0000E94410041E062E08AE390E00E94410009
:1001F0000E947B00089560E08FE00E94B70061E0FC
:1002000085E00E94B70062E08AE00E94B70008958E
:04021000F894FFCF90
:0A0214003F065B4F666D7D077F6FAC
:00000001FF
