:100000000C942A000C9434000C9434000C943400AA
:100010000C9434000C9434000C9434000C94340090
:100020000C9434000C9434000C9434000C94340080
:100030000C9434000C9434000C9434000C94340070
:100040000C9434000C9434000C9434000C94340060
:100050000C94340011241FBECFE5D8E0DEBFCDBF25
:100060000E9494000C9462010C940000FC01413049
:1000700059F4208181E090E002C0880F991F6A95B1
:10008000E2F7822B80830895908121E030E002C066
:10009000220F331F6A95E2F72095292320830895C4
:1000A000442361F0FC01408121E030E002C0220FD6
:1000B000331F6A95E2F7242B20830895FC014081C9
:1000C00021E030E002C0220F331F6A95E2F720954D
:1000D000242320830895FC01808190E002C095953F
:1000E00087956A95E2F78170089540E060E087E3C4
:1000F00090E00E94360040E061E087E390E00E94DB
:10010000360040E062E087E390E00E94360040E085
:1001100063E087E390E00E94360040E064E087E31C
:1001200090E00E94360008950E9475000E94E3004E
:1001300060E086E390E00E946B00882319F00E9443
:10014000CA00F6CF61E086E390E00E946B0088234E
:1001500019F00E94FE00ECCF62E086E390E00E947E
:100160006B00882319F00E941701E2CF63E086E359
:1001700090E00E946B00882319F00E943001D8CFD4
:1001800064E086E390E00E946B00882389F20E947D
:100190004901CECF40E060E08BE390E00E94500048
:1001A00040E061E08BE390E00E94500040E062E0BC
:1001B0008BE390E00E94500040E063E08BE390E02E
:1001C0000E945000089541E060E08AE390E00E94C0
:1001D000360041E061E08AE390E00E94360041E0B1
:1001E00062E08AE390E00E94360041E063E08AE347
:1001F00090E00E9436000E94CA00089541E060E04D
:100200008BE390E00E94500040E061E08BE390E0DF
:100210000E94500041E062E08BE390E00E945000B9
:1002200040E063E08BE390E00E945000089540E0DE
:1002300060E08BE390E00E94500041E061E08BE3DE
:1002400090E00E94500040E062E08BE390E00E946A
:10025000500041E063E08BE390E00E94500008957D
:1002600040E060E08BE390E00E94500041E061E0FC
:100270008BE390E00E94500041E062E08BE390E06D
:100280000E94500040E063E08BE390E00E94500049
:10029000089541E060E08BE390E00E94500040E070
:1002A00061E08BE390E00E94500040E062E08BE36D
:1002B00090E00E94500041E063E08BE390E00E94F8
:0802C00050000895F894FFCFEF
:00000001FF
